:020000040000FA
:10000000880400208101000085010000B903000080
:1000100000000000000000000000000000000000E0
:100020000000000000000000000000008901000046
:1000300000000000000000008B0100008D010000A6
:100040008F0100008F0100008F0100000000000000
:1000500000000000000000008F0100000000000010
:1000600000000000000000008F0100000000000000
:100070008F0100008F0100008F0100008F01000040
:100080008F0100008F0100008F0100008F01000030
:100090008F0100008F0100008F0100008F01000020
:1000A0008F010000050600008F0100008F01000095
:1000B000B1040000A5040000990400008D040000B4
:1000C00000F002F800F04CF812A030C808382418EC
:1000D0002D18AC4201D100F043F80FCCA246AB463C
:1000E0000CA730CF2D1B083F3F197C427F1E544484
:1000F0002D090426F441641EAC4201D300F030F80F
:100100000126334200D0FB1A3343984754465D46DC
:10011000DFE700008C0B0000AC0B0000103A02D3AC
:1001200078C878C1FAD8520701D330C830C101D598
:1001300004680C6070470000704700000023002432
:1001400000250026103A01D378C1FBD8520700D30E
:1001500030C100D50B6070471FB51FBD10B510BD75
:1001600000F050F81146FFF7F7FF00F05BFA00F0DF
:1001700068F803B4FFF7F2FF03BC00F06FF800006B
:1001800006480047FEE7FEE7FEE7FEE7FEE7FEE77C
:1001900003480449024A044B70470000C1000000B4
:1001A000880200208804002088020020D2B210B506
:1001B00013029A1813049A1800F004F810BD70473F
:1001C0007047704701E004C0091F0429FBD28B0768
:1001D00001D50280801CC90700D002707047002939
:1001E0000BD0C30702D00270401C491E022904D361
:1001F000830702D50280801C891EE3E70022EEE718
:100200000022DFE7754600F025F8AE460500694696
:100210005346C008C000854618B020B5FFF7B8FFA8
:1002200060BCB64600260027C0C5C0C5C0C5C0C555
:10023000C0C5C0C5C0C5C0C5403D490849008D46C0
:10024000704710B50446C046C0462046FFF791FFF0
:1002500010BD000000487047080000200149182028
:10026000ABBEFEE72600020070470000B0B50C48A8
:10027000FF2141600F214A020A494A600A4A137865
:100280005B1CDCB2032C00D900235CB2A40007A5E0
:100290002C590C601370D9B2084A515C0160B0BD92
:1002A0002440044024600440740200200002000046
:1002B0000004000000080000001000008002002080
:1002C00081B000902B48002101600221416000991B
:1002D000C1600168C90701D000BFFAE74168402248
:1002E0000A4342600168C90702D000BFFAE700BFB5
:1002F0000168C907FBD101B07047C046B0B582B0F4
:10030000019000910098C01C032188430090194976
:10031000086804239843086001234B600198C86073
:10032000002000E0121D009C002C21D014688C607D
:10033000019C640702D4009C042C0BD14C6840251E
:1003400025434D600C68E40701D000BFFAE70C6854
:1003500064070CD4019C241D0194009C241F00946C
:10036000019C6407DED44B60019CCC60DAE7184640
:1003700002B0B0BD042006404048002101603D4964
:10038000F0220A600A49FF220A604A620F214902EC
:100390000160416201200102064A13680B431360A9
:1003A0001162400211680143116010627047C0463B
:1003B0000440044004A00440BFF34F8F03480449A5
:1003C0000160BFF34F8F00BFFDE7C0460CED00E0BA
:1003D0000400FA05F0B581B0264D2868F024A0434A
:1003E00028606868244908406860244E30682043CB
:1003F00030607462012000F0F9F8281F00680006E0
:10040000070F14D03068A043306070681A49084064
:1004100070602868204328606C62012000F0E6F8D4
:10042000301F00682040C019FF22424000E0002237
:10043000134B19788A4216D1124A1378DC0800202F
:10044000182C0ED85B1C1370DAB2322A09D10E4B6D
:100450001A781970914204D04A40114000D10A46DE
:10046000104601B0F0BD0749002008701A7001B0B5
:10047000F0BDC04604800440FF00FFFF046004405C
:1004800001000020780200207702002001480B497B
:1004900001607047204004400148084901607047EE
:1004A00020600440014805490160704720800440F5
:1004B000014802490160704720A00440FF3F00004E
:1004C00005480021016241620165016401604160EB
:1004D00041610248016070470020044090200440C0
:1004E00070B5264D281F00684006410F244C042992
:1004F00020D87D200002C0467944097949008F4404
:1005000002171113090028461038006880070ED51D
:1005100020460DE028460C380068C004204607D568
:10052000184805E0184803E00120C00300E0174820
:100530001749086028684007C00E16A10958144ED4
:10054000306800F0A9FA30602968090704D5400036
:10055000032100F0A1FA306031683148154A914218
:1005600004D80246A14205D9293004E002461932D6
:10057000A142F9D810461049086070BD100006402D
:10058000006CDC020090D0030024F400001BB700D4
:1005900068020020010000000200000004000000CA
:1005A00008000000100000002000000040000000D3
:1005B00080000000FF356E01002006400A48014619
:1005C00010390A6802239A430A60021F0021116051
:1005D00013685B065B0FFBD10160026808239A4336
:1005E000026001627047C0461000064081B00E21D3
:1005F000414300910098411E00910028FAD101B0BA
:100600007047000004480549C1600168044A0A4374
:1006100004218A430260704700000140AA55FA5A3B
:100620000000FA5A86B0FFF7C9FFFFF759FFFFF73E
:1006300047FF2F4801680127B9430160FFF79CFE7F
:100640003D022C4C20462038016829433943016083
:1006500067606420FFF7CAFF049525601F214802E8
:1006600000900068020CF64B9A420FD1F64A1070C7
:10067000030AF44A1370C9020140F44B994201D3B2
:1006800000211170C0B23B2803D805E0ED480021DD
:100690000170ED48002101704B208000059001E0C1
:1006A00004982060F44DF24EE948EA490160FFF7F2
:1006B00091FEED4BE8490880002800D1B2E000210E
:1006C000E64A1180059A2B463546E54E32802E4685
:1006D0001D46E54BE34A11801A78042A00D9A1E0AF
:1006E0007A44127952009744074E3A440F00C046AC
:1006F0001C00064024A0044081284ED01128DA4B6B
:1007000000D08FE01F708DE0182850D02828D64BDD
:1007100047D0812800D085E019707E02FF22D3489F
:1007200005463146FFF742FDC7480078C5490978BC
:1007300009020818C14908432860C548C549016035
:1007400072B6009D2846FFF7BBFD2846CA4D3146CC
:10075000C74EC64AFFF7D2FDC34B62B662E02828F7
:1007600038D01828C04B2DD011285BD1002018702C
:1007700058E0182845D02828BB4B33D0812851D1C8
:10078000042018704EE0282845D01828B64B2FD0EA
:10079000112847D10220187044E00320B24B187092
:1007A00040E0A9490878002820D13B2039E0A6483C
:1007B0000078401CC2B23B2AAB4B00D80146A2488D
:1007C00001702FE03078401CC1B23B2900D90020D5
:1007D000307027E030780028A34B00D12BE1401E79
:1007E00030701FE097490878002819D0401E18E0A3
:1007F000A0480078401CC1B2172900D900209D49AB
:100800000FE090480078401CC1B21729964B00D9E0
:1008100000208C4905E0974908780028924BE5D1E3
:10082000172008702888401C288080B2C0087D28C6
:1008300033D300202880914A1178491C1170C9B225
:100840003C2912D3002111703278521C3270D2B27E
:100850003C2A0AD33170874A1278521CD3B2172B24
:1008600000D81146834A11707F4B1978002912D1A4
:10087000744909787F4A12788A420CD17249097802
:1008800032788A4207D17E480078002805D1754821
:100890007C49018038467A49087028887D21890082
:1008A000884201D0002804D1774A10784142414162
:1008B0001170187800280ED068490888401C0880FC
:1008C00080B27249884206D30020644908801870BB
:1008D0000598634908806C480078197802290DD87A
:1008E0003278CD260A230393CD07029617D000282D
:1008F00015D10025664B1D70802525E0524A1278DF
:10090000CD260A230393FD250D40012D029620D10B
:1009100000281ED100255E4B1D7080252EE001921F
:10092000544A1578EAB27243D20A5A4B9B5C584E2D
:100930003370039B5A43AA1AD2B2564B9A5C7F2358
:10094000DD4333461543019A454E5D70022919D0A7
:100950001DE001923B4A1578EAB27243D20A4D4B30
:100960009B5C4B4E3370039B5A43AA1AD2B2494B3D
:100970009A5C7F23DD4333461543019A384E5D7000
:10098000042904D1002802D1002098700BE0D0B2D5
:1009900002994143C80A03994143511A3D4A105CE8
:1009A0009870C8B2105CD870FFF760FC30880028DF
:1009B00010D0401E30800025276003263046FFF708
:1009C00015FE67603046FFF711FE681C002D0546D6
:1009D000F2D01EE023490888002816D0401E088067
:1009E0000598C8302449098881420ED20025276025
:1009F00003263046FFF7FAFD67603046FFF7F6FD45
:100A0000681C002D0546F2D003E067606420FFF704
:100A1000EDFD15480078C01E012800D940E61A48AF
:100A200000780028144D124E02D0049860603BE616
:100A30000498206038E63B203070F3E6000055AAA9
:100A400055AA00006C0200206D0200200117000072
:100A50000C000140AA55FA5A7C02002084020020B2
:100A6000720200206E020020750200206800002043
:100A700079020020760200207A0200207E02002007
:100A80007002002088130000000000203075000074
:100A9000800200208E0C000043088B421AD30022F3
:100AA00003098B4279D3030A8B425ED3030B8B423B
:100AB00042D3030C8B4227D30902FF2212BA030C44
:100AC0008B4202D31212090203D0030B8B4233D3A1
:100AD0001AE0D3E0411A8041401C704703460B43A3
:100AE00071D443088B42F5D3002203098B4254D3BF
:100AF000030A8B4239D3030B8B421DD3030C8B4269
:100B000002D394466EE0090AC30B8B4201D3CB0398
:100B1000C01A5241830B8B4201D38B03C01A52413E
:100B2000430B8B4201D34B03C01A5241030B8B4240
:100B300001D30B03C01A5241C30A8B4201D3CB022B
:100B4000C01A5241830A8B4201D38B02C01A524110
:100B5000430A8B4201D34B02C01A5241030A8B4213
:100B600001D30B02C01A5241CDD2C3098B4201D32B
:100B7000CB01C01A524183098B4201D38B01C01AA9
:100B8000524143098B4201D34B01C01A5241030920
:100B90008B4201D30B01C01A5241C3088B4201D3CF
:100BA000CB00C01A524183088B4201D38B00C01A7C
:100BB000524143088B4201D34B00C01A5241411AA3
:100BC000524110007047CA0F00D04942031000D3B1
:100BD0004042534000229C4603098B422DD3030A16
:100BE0008B4212D38901FC2212BA030A8B420CD326
:100BF000890192118B4208D3890192118B4204D34F
:100C0000890137D0921100E08909C3098B4201D3D1
:100C1000CB01C01A524183098B4201D38B01C01A08
:100C2000524143098B4201D34B01C01A524103097F
:100C30008B4201D30B01C01A5241C3088B4201D32E
:100C4000CB00C01A524183088B4201D38B00C01ADB
:100C50005241D9D243088B4201D34B00C01A5241B2
:100C6000411A00D201465241104663465B1000D340
:100C70004042704763465B1000D3404201B50021FB
:100C8000004201D0C9430846C046C04602BD3F06E7
:100C90005B4F666D7D077F6F777C395E7971710080
:100CA000C00C000000000020080000001C01000033
:100CB000C80C000008000020800400003C01000077
:080CC00001010000000000002A
:020000040000FA
:047FFC005555AAAA83
:04000005000000C136
:00000001FF
