:020000040000FA
:1000000088020020810100008501000065030000D6
:1000100000000000000000000000000000000000E0
:100020000000000000000000000000008901000046
:1000300000000000000000008B0100008D010000A6
:100040008F0100008F0100008F0100000000000000
:1000500000000000000000008F0100000000000010
:1000600000000000000000008F0100000000000000
:100070008F0100008F0100008F0100008F01000040
:100080008F0100008F0100008F0100008F01000030
:100090008F0100008F0100008F0100008F01000020
:1000A0008F010000B10500008F0100008F010000EA
:1000B0005D04000051040000450400003904000004
:1000C00000F002F800F04CF812A030C808382418EC
:1000D0002D18AC4201D100F043F80FCCA246AB463C
:1000E0000CA730CF2D1B083F3F197C427F1E544484
:1000F0002D090426F441641EAC4201D300F030F80F
:100100000126334200D0FB1A3343984754465D46DC
:10011000DFE70000D40A0000F40A0000103A02D31E
:1001200078C878C1FAD8520701D330C830C101D598
:1001300004680C6070470000704700000023002432
:1001400000250026103A01D378C1FBD8520700D30E
:1001500030C100D50B6070471FB51FBD10B510BD75
:1001600000F027F81146FFF7F7FF00F03DFA00F026
:100170003FF803B4FFF7F2FF03BC00F045F80000BE
:1001800006480047FEE7FEE7FEE7FEE7FEE7FEE77C
:1001900003480449024A044B70470000C1000000B4
:1001A00088000020880200208800002070477047E7
:1001B0007047754600F024F8AE4605006946534680
:1001C000C008C000854618B020B5FFF7E1FF60BC4D
:1001D000B64600260027C0C5C0C5C0C5C0C5C0C53D
:1001E000C0C5C0C5C0C5403D490849008D467047DF
:1001F00010B50446C046C0462046FFF7BAFF10BD02
:10020000004870470800002001491820ABBEFEE7F7
:100210002600020070470000B0B50C48FF21416085
:100220000F214A020A494A600A4A13785B1CDCB271
:10023000032C00D900235CB2A40007A52C590C6044
:100240001370D9B2084A515C0160B0BD244004402B
:10025000246004407400002000020000000400003C
:1002600000080000001000008000002081B0009015
:100270002B4800210160022141600099C1600168A2
:10028000C90701D000BFFAE7416840220A43426033
:100290000168C90702D000BFFAE700BF0168C907BB
:1002A000FBD101B07047C046B0B582B0019000915B
:1002B0000098C01C03218843009019490868042352
:1002C0009843086001234B600198C860002000E05B
:1002D000121D009C002C21D014688C60019C6407C6
:1002E00002D4009C042C0BD14C68402525434D6062
:1002F0000C68E40701D000BFFAE70C6864070CD46F
:10030000019C241D0194009C241F0094019C6407FF
:10031000DED44B60019CCC60DAE7184602B0B0BD79
:10032000042006404048002101603D49F0220A6057
:100330000A49FF220A604A620F21490201604162B4
:1003400001200102064A13680B4313601162400248
:1003500011680143116010627047C04604400440B8
:1003600004A00440BFF34F8F034804490160BFF36A
:100370004F8F00BFFDE7C0460CED00E00400FA051A
:10038000F0B581B0264D2868F024A0432860686845
:10039000244908406860244E30682043306074620D
:1003A000012000F0F9F8281F00680006070F14D09C
:1003B0003068A043306070681A490840706028684F
:1003C000204328606C62012000F0E6F8301F0068CE
:1003D0002040C019FF22424000E00022134B197850
:1003E0008A4216D1124A1378DC080020182C0ED845
:1003F0005B1C1370DAB2322A09D10E4B1A781970CD
:10040000914204D04A40114000D10A46104601B042
:10041000F0BD0749002008701A7001B0F0BDC04659
:1004200004800440FF00FFFF04600440010000203E
:10043000780000207700002001480B4901607047D8
:100440002040044001480849016070472060044092
:100450000148054901607047208004400148024975
:100460000160704720A00440FF3F000005480021C4
:1004700001624162016501640160416041610248BD
:1004800001607047002004409020044070B5264D64
:10049000281F00684006410F244C042920D87D20E5
:1004A0000002C0467944097949008F4402171113AC
:1004B000090028461038006880070ED520460DE058
:1004C00028460C380068C004204607D5184805E0C7
:1004D000184803E00120C00300E0174817490860EE
:1004E00028684007C00E16A10958144E306800F065
:1004F00077FA30602968090704D54000032100F02D
:100500006FFA306031683748154A914204D8024684
:10051000A14205D9293004E002461932A142F9D896
:1005200010461049086070BD10000640006CDC02E7
:100530000090D0030024F400001BB70068000020E6
:10054000010000000200000004000000080000009C
:1005500010000000200000004000000080000000AB
:10056000FF356E01002006400A48014610390A682E
:1005700002239A430A60021F0021116013685B0680
:100580005B0FFBD10160026808239A43026001629D
:100590007047C0461000064081B00E2141430091D3
:1005A0000098411E00910028FAD101B07047000068
:1005B0000B48FB49C16001680A4A0A4304218A4387
:1005C000026070470648074901600A463D32826072
:1005D000F34AC26002680A43012111430160704777
:1005E000000001400000FA5A86B0FFF7BDFFFFF798
:1005F0004DFFFFF73BFFE44801680125A943016077
:10060000FFF790FE2A02E14C204620380168114392
:100610002943016003956560029222603F208002B9
:1006200000900068411C10D0D9490870020AD949CD
:100630000A701F22D2020240D74B9A4201D30022F5
:100640000A70C0B23B2803D805E0D24800210170EF
:10065000CF4800210170FFF7B5FF4B2080000490C8
:10066000D74ED54D04E0029820606420FFF794FF38
:10067000CA48CB490160FFF783FECA4908800028B9
:10068000CC4B00D197E00021C74A1180049AC74F94
:100690003A80C74A11801A78042A00D98BE0C046F4
:1006A0007A441279520097440239252F0A00812892
:1006B0003ED01128BF4B7ED1039818707BE01828DC
:1006C00040D02828BB4B37D0812874D11970B0484E
:1006D0000078B0490978090208180590009D28465D
:1006E000FFF7C4FD042105AA2846B34DFFF7DCFD42
:1006F000B04B60E0282838D01828AE4B2DD01128F8
:1007000059D10020187056E0182845D02828A94B48
:1007100033D081284FD1042018704CE0282843D0D2
:100720001828A44B2FD0112845D10220187042E080
:100730000320A04B18703EE095490878002820D18E
:100740003B2037E092480078401CC2B23B2A994BCC
:1007500000D801468E4801702DE02878401CC1B2B7
:100760003B2900D90020287025E028780028914BEB
:1007700000D106E1401E28701DE086490878002857
:1007800017D0401E16E08D4A1078401CC1B21729C0
:1007900000D9002010700EE07E4A1078401CC1B2D3
:1007A0001729844BF5D8F5E7844908780028814B50
:1007B000E7D1172008703088401C308080B2C00814
:1007C0007D2833D3002030807E4A1178491C117077
:1007D000C9B23C2912D3002111702A78521C2A7008
:1007E000D2B23C2A0AD32970744A1278521CD3B26E
:1007F000172B00D81146714A11706E4B19780029D9
:1008000012D1644909786D4A12788A420CD1604944
:1008100009782A788A4207D16B480078002805D1E8
:1008200063486A49018003986749087030887D21D0
:100830008900884201D0002804D1654A10784142DD
:1008400041411170187800280ED057490888401C83
:10085000088080B25F49884206D300205249088050
:10086000187004985149088059480078197802296D
:100870000BD82F78CD250A23CE0715D0002813D109
:100880000026554A1670802622E0414A1778CD2569
:100890000A23FD240C40012C1ED100281CD1002469
:1008A0004D4A147080262AE0444C2678F4B26C43FA
:1008B000E40A0197494F3F5D474A1770019F5C4327
:1008C000341BE4B2454E345D7F26F64326432F4C5D
:1008D0005670022917D01CE02E4C2478E6B26E43E5
:1008E000F60A01973D4FBF5D3B4A1770019F5E437B
:1008F000A41BE4B2394E345D7F26F643264356707E
:100900000429224C05D1002803D10020324B9870D5
:100910000AE0F8B24543E80A4343F91A2F4A105C4B
:100920002D4B9870C8B2105C254E234DD870FFF740
:1009300073FC1E490888002805D0039A2260401ED7
:1009400008801C4A10E01A4908880028194A09D072
:10095000401E08800498C8303188814202D2039832
:10096000206001E0039860601078C01E012800D963
:1009700079E617480078002800D174E60298606094
:1009800073E63B20287016E71C00064024A00440B4
:100990006D0000206C000020011700000C000140D9
:1009A000AA55FA5A7C000020840000207200002022
:1009B0006E000020750000207900002076000020E5
:1009C0007A0000207E0000207000002088130000C4
:1009D000000000203075000080000020D60B0000D1
:1009E00043088B421AD3002203098B4279D3030AAE
:1009F0008B425ED3030B8B4242D3030C8B4227D333
:100A00000902FF2212BA030C8B4202D3121209020E
:100A100003D0030B8B4233D31AE0D3E0411A804159
:100A2000401C704703460B4371D443088B42F5D3F7
:100A3000002203098B4254D3030A8B4239D3030BA0
:100A40008B421DD3030C8B4202D394466EE0090AFD
:100A5000C30B8B4201D3CB03C01A5241830B8B4291
:100A600001D38B03C01A5241430B8B4201D34B037A
:100A7000C01A5241030B8B4201D30B03C01A5241DF
:100A8000C30A8B4201D3CB02C01A5241830A8B4264
:100A900001D38B02C01A5241430A8B4201D34B024D
:100AA000C01A5241030A8B4201D30B02C01A5241B1
:100AB000CDD2C3098B4201D3CB01C01A5241830965
:100AC0008B4201D38B01C01A524143098B4201D39F
:100AD0004B01C01A524103098B4201D30B01C01ACA
:100AE0005241C3088B4201D3CB00C01A5241830844
:100AF0008B4201D38B00C01A524143088B4201D371
:100B00004B00C01A5241411A524110007047CA0F9F
:100B100000D04942031000D34042534000229C467B
:100B200003098B422DD3030A8B4212D38901FC2285
:100B300012BA030A8B420CD3890192118B4208D35B
:100B4000890192118B4204D3890137D0921100E0C0
:100B50008909C3098B4201D3CB01C01A52418309D1
:100B60008B4201D38B01C01A524143098B4201D3FE
:100B70004B01C01A524103098B4201D30B01C01A29
:100B80005241C3088B4201D3CB00C01A52418308A3
:100B90008B4201D38B00C01A5241D9D243088B42F9
:100BA00001D34B00C01A5241411A00D201465241B2
:100BB000104663465B1000D34042704763465B10AB
:100BC00000D3404201B50021004201D0C94308468C
:100BD000C046C04602BD3F065B4F666D7D077F6F16
:100BE000777C395E79717100080C000000000020EC
:100BF000080000001C010000100C0000080000208C
:100C0000800200003C010000010100000000000023
:020000040000FA
:047FFC005555AAAA83
:04000005000000C136
:00000001FF
